{
  "contractName": "Fund",
  "abi": [
    {
      "constant": false,
      "inputs": [
        {
          "internalType": "string",
          "name": "_nickname",
          "type": "string"
        },
        {
          "internalType": "string",
          "name": "_intro",
          "type": "string"
        }
      ],
      "name": "add_user",
      "outputs": [],
      "payable": false,
      "stateMutability": "nonpayable",
      "type": "function"
    },
    {
      "constant": false,
      "inputs": [
        {
          "internalType": "string",
          "name": "_title",
          "type": "string"
        },
        {
          "internalType": "bool",
          "name": "agree",
          "type": "bool"
        }
      ],
      "name": "user_voting",
      "outputs": [],
      "payable": false,
      "stateMutability": "nonpayable",
      "type": "function"
    },
    {
      "constant": true,
      "inputs": [
        {
          "internalType": "address",
          "name": "_address",
          "type": "address"
        },
        {
          "internalType": "uint256",
          "name": "i",
          "type": "uint256"
        }
      ],
      "name": "view_user_created_project",
      "outputs": [
        {
          "internalType": "string",
          "name": "",
          "type": "string"
        }
      ],
      "payable": false,
      "stateMutability": "view",
      "type": "function"
    },
    {
      "constant": true,
      "inputs": [
        {
          "internalType": "address",
          "name": "_address",
          "type": "address"
        }
      ],
      "name": "view_user_data",
      "outputs": [
        {
          "internalType": "string",
          "name": "",
          "type": "string"
        },
        {
          "internalType": "string",
          "name": "",
          "type": "string"
        },
        {
          "internalType": "uint256",
          "name": "",
          "type": "uint256"
        }
      ],
      "payable": false,
      "stateMutability": "view",
      "type": "function"
    },
    {
      "constant": true,
      "inputs": [
        {
          "internalType": "address",
          "name": "_address",
          "type": "address"
        }
      ],
      "name": "view_user_exist_or_not",
      "outputs": [
        {
          "internalType": "uint256",
          "name": "",
          "type": "uint256"
        }
      ],
      "payable": false,
      "stateMutability": "view",
      "type": "function"
    },
    {
      "constant": false,
      "inputs": [
        {
          "internalType": "string",
          "name": "_title",
          "type": "string"
        },
        {
          "internalType": "string",
          "name": "_topic",
          "type": "string"
        },
        {
          "internalType": "string",
          "name": "_intro",
          "type": "string"
        },
        {
          "internalType": "uint256",
          "name": "_target_money",
          "type": "uint256"
        },
        {
          "internalType": "uint256",
          "name": "_deadline",
          "type": "uint256"
        },
        {
          "internalType": "uint256",
          "name": "_stagenum",
          "type": "uint256"
        }
      ],
      "name": "add_project",
      "outputs": [],
      "payable": false,
      "stateMutability": "nonpayable",
      "type": "function"
    },
    {
      "constant": false,
      "inputs": [
        {
          "internalType": "string",
          "name": "_title",
          "type": "string"
        }
      ],
      "name": "recieve_value_to_project",
      "outputs": [],
      "payable": true,
      "stateMutability": "payable",
      "type": "function"
    },
    {
      "constant": true,
      "inputs": [],
      "name": "view_project_list_length",
      "outputs": [
        {
          "internalType": "uint256",
          "name": "",
          "type": "uint256"
        }
      ],
      "payable": false,
      "stateMutability": "view",
      "type": "function"
    },
    {
      "constant": true,
      "inputs": [
        {
          "internalType": "uint256",
          "name": "i",
          "type": "uint256"
        }
      ],
      "name": "view_project_list",
      "outputs": [
        {
          "internalType": "string",
          "name": "",
          "type": "string"
        },
        {
          "internalType": "string",
          "name": "",
          "type": "string"
        },
        {
          "internalType": "string",
          "name": "",
          "type": "string"
        },
        {
          "internalType": "uint256",
          "name": "",
          "type": "uint256"
        },
        {
          "internalType": "uint256",
          "name": "",
          "type": "uint256"
        },
        {
          "internalType": "uint256",
          "name": "",
          "type": "uint256"
        },
        {
          "internalType": "address",
          "name": "",
          "type": "address"
        }
      ],
      "payable": false,
      "stateMutability": "view",
      "type": "function"
    },
    {
      "constant": false,
      "inputs": [
        {
          "internalType": "string",
          "name": "_title",
          "type": "string"
        },
        {
          "internalType": "string",
          "name": "_msg",
          "type": "string"
        }
      ],
      "name": "comment_on_board",
      "outputs": [],
      "payable": false,
      "stateMutability": "nonpayable",
      "type": "function"
    },
    {
      "constant": true,
      "inputs": [
        {
          "internalType": "string",
          "name": "_title",
          "type": "string"
        }
      ],
      "name": "view_comment_length",
      "outputs": [
        {
          "internalType": "uint256",
          "name": "",
          "type": "uint256"
        }
      ],
      "payable": false,
      "stateMutability": "view",
      "type": "function"
    },
    {
      "constant": true,
      "inputs": [
        {
          "internalType": "string",
          "name": "_title",
          "type": "string"
        },
        {
          "internalType": "uint256",
          "name": "i",
          "type": "uint256"
        }
      ],
      "name": "view_comment",
      "outputs": [
        {
          "internalType": "string",
          "name": "",
          "type": "string"
        },
        {
          "internalType": "address",
          "name": "",
          "type": "address"
        }
      ],
      "payable": false,
      "stateMutability": "view",
      "type": "function"
    },
    {
      "constant": true,
      "inputs": [
        {
          "internalType": "string",
          "name": "_title",
          "type": "string"
        }
      ],
      "name": "view_project_current_money",
      "outputs": [
        {
          "internalType": "uint256",
          "name": "",
          "type": "uint256"
        }
      ],
      "payable": false,
      "stateMutability": "view",
      "type": "function"
    },
    {
      "constant": true,
      "inputs": [
        {
          "internalType": "uint256",
          "name": "i",
          "type": "uint256"
        }
      ],
      "name": "view_project_stop",
      "outputs": [
        {
          "internalType": "bool",
          "name": "",
          "type": "bool"
        }
      ],
      "payable": false,
      "stateMutability": "view",
      "type": "function"
    },
    {
      "constant": false,
      "inputs": [
        {
          "internalType": "string",
          "name": "_title",
          "type": "string"
        }
      ],
      "name": "start_voting",
      "outputs": [],
      "payable": false,
      "stateMutability": "nonpayable",
      "type": "function"
    },
    {
      "constant": false,
      "inputs": [
        {
          "internalType": "string",
          "name": "_title",
          "type": "string"
        }
      ],
      "name": "stop_voting",
      "outputs": [],
      "payable": false,
      "stateMutability": "nonpayable",
      "type": "function"
    },
    {
      "constant": true,
      "inputs": [
        {
          "internalType": "string",
          "name": "_title",
          "type": "string"
        }
      ],
      "name": "view_read_state",
      "outputs": [
        {
          "internalType": "uint256",
          "name": "",
          "type": "uint256"
        },
        {
          "internalType": "bool",
          "name": "",
          "type": "bool"
        },
        {
          "internalType": "bool",
          "name": "",
          "type": "bool"
        },
        {
          "internalType": "bool",
          "name": "",
          "type": "bool"
        }
      ],
      "payable": false,
      "stateMutability": "view",
      "type": "function"
    }
  ],
  "bytecode": "0x608060405234801561001057600080fd5b50615e4d80620000216000396000f3fe6080604052600436106100fe5760003560e01c806365c6f5fd11610095578063baca3f1311610064578063baca3f1314610ce8578063bb2c9b3a14610db0578063c7740b7114610e8c578063cb3b352314610f47578063cfe31d831461111b576100fe565b806365c6f5fd14610806578063715a4c58146108ce5780638557df6314610a4c578063b5a36f1a14610b89576100fe565b806334a8af4d116100d157806334a8af4d146102c25780633717c14b146104d6578063400462fa146105d3578063483d294514610732576100fe565b80631568d3b0146101035780631761b4b51461015657806328457ec5146102325780632f43648514610297575b600080fd5b34801561010f57600080fd5b5061013c6004803603602081101561012657600080fd5b81019080803590602001909291905050506111ad565b604051808215151515815260200191505060405180910390f35b34801561016257600080fd5b5061021c6004803603602081101561017957600080fd5b810190808035906020019064010000000081111561019657600080fd5b8201836020820111156101a857600080fd5b803590602001918460018302840111640100000000831117156101ca57600080fd5b91908080601f016020809104026020016040519081016040528093929190818152602001838380828437600081840152601f19601f82011690508083019250505050505050919291929050505061124e565b6040518082815260200191505060405180910390f35b34801561023e57600080fd5b506102816004803603602081101561025557600080fd5b81019080803573ffffffffffffffffffffffffffffffffffffffff1690602001909291905050506112ca565b6040518082815260200191505060405180910390f35b3480156102a357600080fd5b506102ac611313565b6040518082815260200191505060405180910390f35b3480156102ce57600080fd5b506104d4600480360360c08110156102e557600080fd5b810190808035906020019064010000000081111561030257600080fd5b82018360208201111561031457600080fd5b8035906020019184600183028401116401000000008311171561033657600080fd5b91908080601f016020809104026020016040519081016040528093929190818152602001838380828437600081840152601f19601f8201169050808301925050505050505091929192908035906020019064010000000081111561039957600080fd5b8201836020820111156103ab57600080fd5b803590602001918460018302840111640100000000831117156103cd57600080fd5b91908080601f016020809104026020016040519081016040528093929190818152602001838380828437600081840152601f19601f8201169050808301925050505050505091929192908035906020019064010000000081111561043057600080fd5b82018360208201111561044257600080fd5b8035906020019184600183028401116401000000008311171561046457600080fd5b91908080601f016020809104026020016040519081016040528093929190818152602001838380828437600081840152601f19601f820116905080830192505050505050509192919290803590602001909291908035906020019092919080359060200190929190505050611320565b005b3480156104e257600080fd5b5061059c600480360360208110156104f957600080fd5b810190808035906020019064010000000081111561051657600080fd5b82018360208201111561052857600080fd5b8035906020019184600183028401116401000000008311171561054a57600080fd5b91908080601f016020809104026020016040519081016040528093929190818152602001838380828437600081840152601f19601f820116905080830192505050505050509192919290505050611804565b6040518085815260200184151515158152602001831515151581526020018215151515815260200194505050505060405180910390f35b3480156105df57600080fd5b50610730600480360360408110156105f657600080fd5b810190808035906020019064010000000081111561061357600080fd5b82018360208201111561062557600080fd5b8035906020019184600183028401116401000000008311171561064757600080fd5b91908080601f016020809104026020016040519081016040528093929190818152602001838380828437600081840152601f19601f820116905080830192505050505050509192919290803590602001906401000000008111156106aa57600080fd5b8201836020820111156106bc57600080fd5b803590602001918460018302840111640100000000831117156106de57600080fd5b91908080601f016020809104026020016040519081016040528093929190818152602001838380828437600081840152601f19601f820116905080830192505050505050509192919290505050611a2e565b005b34801561073e57600080fd5b5061078b6004803603604081101561075557600080fd5b81019080803573ffffffffffffffffffffffffffffffffffffffff16906020019092919080359060200190929190505050611cd1565b6040518080602001828103825283818151815260200191508051906020019080838360005b838110156107cb5780820151818401526020810190506107b0565b50505050905090810190601f1680156107f85780820380516001836020036101000a031916815260200191505b509250505060405180910390f35b34801561081257600080fd5b506108cc6004803603602081101561082957600080fd5b810190808035906020019064010000000081111561084657600080fd5b82018360208201111561085857600080fd5b8035906020019184600183028401116401000000008311171561087a57600080fd5b91908080601f016020809104026020016040519081016040528093929190818152602001838380828437600081840152601f19601f820116905080830192505050505050509192919290505050611de6565b005b3480156108da57600080fd5b5061099e600480360360408110156108f157600080fd5b810190808035906020019064010000000081111561090e57600080fd5b82018360208201111561092057600080fd5b8035906020019184600183028401116401000000008311171561094257600080fd5b91908080601f016020809104026020016040519081016040528093929190818152602001838380828437600081840152601f19601f82011690508083019250505050505050919291929080359060200190929190505050612150565b60405180806020018373ffffffffffffffffffffffffffffffffffffffff1673ffffffffffffffffffffffffffffffffffffffff168152602001828103825284818151815260200191508051906020019080838360005b83811015610a105780820151818401526020810190506109f5565b50505050905090810190601f168015610a3d5780820380516001836020036101000a031916815260200191505b50935050505060405180910390f35b348015610a5857600080fd5b50610a9b60048036036020811015610a6f57600080fd5b81019080803573ffffffffffffffffffffffffffffffffffffffff169060200190929190505050612324565b604051808060200180602001848152602001838103835286818151815260200191508051906020019080838360005b83811015610ae5578082015181840152602081019050610aca565b50505050905090810190601f168015610b125780820380516001836020036101000a031916815260200191505b50838103825285818151815260200191508051906020019080838360005b83811015610b4b578082015181840152602081019050610b30565b50505050905090810190601f168015610b785780820380516001836020036101000a031916815260200191505b509550505050505060405180910390f35b348015610b9557600080fd5b50610ce660048036036040811015610bac57600080fd5b8101908080359060200190640100000000811115610bc957600080fd5b820183602082011115610bdb57600080fd5b80359060200191846001830284011164010000000083111715610bfd57600080fd5b91908080601f016020809104026020016040519081016040528093929190818152602001838380828437600081840152601f19601f82011690508083019250505050505050919291929080359060200190640100000000811115610c6057600080fd5b820183602082011115610c7257600080fd5b80359060200191846001830284011164010000000083111715610c9457600080fd5b91908080601f016020809104026020016040519081016040528093929190818152602001838380828437600081840152601f19601f820116905080830192505050505050509192919290505050612588565b005b348015610cf457600080fd5b50610dae60048036036020811015610d0b57600080fd5b8101908080359060200190640100000000811115610d2857600080fd5b820183602082011115610d3a57600080fd5b80359060200191846001830284011164010000000083111715610d5c57600080fd5b91908080601f016020809104026020016040519081016040528093929190818152602001838380828437600081840152601f19601f82011690508083019250505050505050919291929050505061270b565b005b348015610dbc57600080fd5b50610e7660048036036020811015610dd357600080fd5b8101908080359060200190640100000000811115610df057600080fd5b820183602082011115610e0257600080fd5b80359060200191846001830284011164010000000083111715610e2457600080fd5b91908080601f016020809104026020016040519081016040528093929190818152602001838380828437600081840152601f19601f820116905080830192505050505050509192919290505050613966565b6040518082815260200191505060405180910390f35b610f4560048036036020811015610ea257600080fd5b8101908080359060200190640100000000811115610ebf57600080fd5b820183602082011115610ed157600080fd5b80359060200191846001830284011164010000000083111715610ef357600080fd5b91908080601f016020809104026020016040519081016040528093929190818152602001838380828437600081840152601f19601f8201169050808301925050505050505091929192905050506139dc565b005b348015610f5357600080fd5b50610f8060048036036020811015610f6a57600080fd5b8101908080359060200190929190505050614635565b604051808060200180602001806020018881526020018781526020018681526020018573ffffffffffffffffffffffffffffffffffffffff1673ffffffffffffffffffffffffffffffffffffffff16815260200184810384528b818151815260200191508051906020019080838360005b8381101561100c578082015181840152602081019050610ff1565b50505050905090810190601f1680156110395780820380516001836020036101000a031916815260200191505b5084810383528a818151815260200191508051906020019080838360005b83811015611072578082015181840152602081019050611057565b50505050905090810190601f16801561109f5780820380516001836020036101000a031916815260200191505b50848103825289818151815260200191508051906020019080838360005b838110156110d85780820151818401526020810190506110bd565b50505050905090810190601f1680156111055780820380516001836020036101000a031916815260200191505b509a505050505050505050505060405180910390f35b34801561112757600080fd5b506111ab6004803603604081101561113e57600080fd5b810190808035906020019064010000000081111561115b57600080fd5b82018360208201111561116d57600080fd5b8035906020019184600183028401116401000000008311171561118f57600080fd5b9091929391929390803515159060200190929190505050614c1a565b005b60006004600583815481106111be57fe5b9060005260206000200160405180828054600181600116156101000203166002900480156112235780601f10611201576101008083540402835291820191611223565b820191906000526020600020905b81548152906001019060200180831161120f575b50509150509081526020016040518091039020600c0160019054906101000a900460ff169050919050565b60006004826040518082805190602001908083835b602083106112865780518252602082019150602081019050602083039250611263565b6001836020036101000a0380198251168184511680821785525050505050509050019150509081526020016040518091039020600d01600001805490509050919050565b6000600160008373ffffffffffffffffffffffffffffffffffffffff1673ffffffffffffffffffffffffffffffffffffffff168152602001908152602001600020549050919050565b6000600580549050905090565b60006004876040518082805190602001908083835b602083106113585780518252602082019150602081019050602083039250611335565b6001836020036101000a038019825116818451168082178552505050505050905001915050908152602001604051809103902060040154146113e5576040517f08c379a0000000000000000000000000000000000000000000000000000000008152600401808060200182810382526025815260200180615df46025913960400191505060405180910390fd5b60008311611436576040517f08c379a0000000000000000000000000000000000000000000000000000000008152600401808060200182810382526000815260200160200191505060405180910390fd5b6000600160003373ffffffffffffffffffffffffffffffffffffffff1673ffffffffffffffffffffffffffffffffffffffff1681526020019081526020016000205414156114a7576114a66040518060200160405280600081525060405180602001604052806000815250611a2e565b5b6114af615922565b86816000018190525085816040018190525084816020018190525083816080018181525050828160e001818152505081816101000181815250506001816101200181815250506000816101a00190151590811515815250506000816101800190151590811515815250506000816101c001901515908115158152505033816060019073ffffffffffffffffffffffffffffffffffffffff16908173ffffffffffffffffffffffffffffffffffffffff168152505061156d3388614cfe565b806004886040518082805190602001908083835b602083106115a45780518252602082019150602081019050602083039250611581565b6001836020036101000a038019825116818451168082178552505050505050905001915050908152602001604051809103902060008201518160000190805190602001906115f39291906159ca565b5060208201518160010190805190602001906116109291906159ca565b50604082015181600201908051906020019061162d9291906159ca565b5060608201518160030160006101000a81548173ffffffffffffffffffffffffffffffffffffffff021916908373ffffffffffffffffffffffffffffffffffffffff1602179055506080820151816004015560a0820151816005015560c0820151816006015560e082015181600701556101008201518160080155610120820151816009015561014082015181600a0190805190602001906116d0929190615a4a565b5061016082015181600b0190805190602001906116ee929190615ad4565b5061018082015181600c0160006101000a81548160ff0219169083151502179055506101a082015181600c0160016101000a81548160ff0219169083151502179055506101c082015181600c0160026101000a81548160ff0219169083151502179055506101e082015181600c0160036101000a81548160ff02191690831515021790555061020082015181600d016000820151816000019080519060200190611799929190615b21565b5060208201518160010190805190602001906117b6929190615b81565b50505090505060058790806001815401808255809150509060018203906000526020600020016000909192909190915090805190602001906117f9929190615c0b565b505050505050505050565b600080600080600360003373ffffffffffffffffffffffffffffffffffffffff1673ffffffffffffffffffffffffffffffffffffffff168152602001908152602001600020856040518082805190602001908083835b6020831061187d578051825260208201915060208101905060208303925061185a565b6001836020036101000a0380198251168184511680821785525050505050509050019150509081526020016040518091039020546004866040518082805190602001908083835b602083106118e757805182526020820191506020810190506020830392506118c4565b6001836020036101000a0380198251168184511680821785525050505050509050019150509081526020016040518091039020600c0160029054906101000a900460ff166004876040518082805190602001908083835b60208310611961578051825260208201915060208101905060208303925061193e565b6001836020036101000a0380198251168184511680821785525050505050509050019150509081526020016040518091039020600c0160009054906101000a900460ff166004886040518082805190602001908083835b602083106119db57805182526020820191506020810190506020830392506119b8565b6001836020036101000a0380198251168184511680821785525050505050509050019150509081526020016040518091039020600c0160039054906101000a900460ff1693509350935093509193509193565b6000600160003373ffffffffffffffffffffffffffffffffffffffff1673ffffffffffffffffffffffffffffffffffffffff168152602001908152602001600020541415611be857611a7e615c8b565b828160000181905250818160200181905250600081908060018154018082558091505090600182039060005260206000209060050201600090919290919091506000820151816000019080519060200190611ada9291906159ca565b506020820151816001019080519060200190611af79291906159ca565b506040820151816002019080519060200190611b14929190615b21565b506060820151816003019080519060200190611b31929190615b21565b506080820151816004019080519060200190611b4e929190615ad4565b50505050600160008054905003600260003373ffffffffffffffffffffffffffffffffffffffff1673ffffffffffffffffffffffffffffffffffffffff1681526020019081526020016000208190555060018060003373ffffffffffffffffffffffffffffffffffffffff1673ffffffffffffffffffffffffffffffffffffffff1681526020019081526020016000208190555050611ccd565b816000600260003373ffffffffffffffffffffffffffffffffffffffff1673ffffffffffffffffffffffffffffffffffffffff1681526020019081526020016000205481548110611c3557fe5b90600052602060002090600502016000019080519060200190611c59929190615c0b565b50806000600260003373ffffffffffffffffffffffffffffffffffffffff1673ffffffffffffffffffffffffffffffffffffffff1681526020019081526020016000205481548110611ca757fe5b90600052602060002090600502016001019080519060200190611ccb929190615c0b565b505b5050565b60606000600260008573ffffffffffffffffffffffffffffffffffffffff1673ffffffffffffffffffffffffffffffffffffffff1681526020019081526020016000205481548110611d1f57fe5b90600052602060002090600502016002018281548110611d3b57fe5b906000526020600020018054600181600116156101000203166002900480601f016020809104026020016040519081016040528092919081815260200182805460018160011615610100020316600290048015611dd95780601f10611dae57610100808354040283529160200191611dd9565b820191906000526020600020905b815481529060010190602001808311611dbc57829003601f168201915b5050505050905092915050565b620f42406004826040518082805190602001908083835b60208310611e205780518252602082019150602081019050602083039250611dfd565b6001836020036101000a0380198251168184511680821785525050505050509050019150509081526020016040518091039020600501541015611ecb576040517f08c379a00000000000000000000000000000000000000000000000000000000081526004018080602001828103825260128152602001807f4572726f7220737461727420766f74696e67000000000000000000000000000081525060200191505060405180910390fd5b3373ffffffffffffffffffffffffffffffffffffffff166108fc620f42409081150290604051600060405180830381858888f19350505050158015611f14573d6000803e3d6000fd5b5060008090505b6004826040518082805190602001908083835b60208310611f515780518252602082019150602081019050602083039250611f2e565b6001836020036101000a0380198251168184511680821785525050505050509050019150509081526020016040518091039020600a018054905081101561204a5761203d6004836040518082805190602001908083835b60208310611fcb5780518252602082019150602081019050602083039250611fa8565b6001836020036101000a0380198251168184511680821785525050505050509050019150509081526020016040518091039020600a01828154811061200c57fe5b9060005260206000200160009054906101000a900473ffffffffffffffffffffffffffffffffffffffff1683614d9c565b8080600101915050611f1b565b60016004836040518082805190602001908083835b60208310612082578051825260208201915060208101905060208303925061205f565b6001836020036101000a0380198251168184511680821785525050505050509050019150509081526020016040518091039020600c0160006101000a81548160ff021916908315150217905550620697806004836040518082805190602001908083835b6020831061210957805182526020820191506020810190506020830392506120e6565b6001836020036101000a0380198251168184511680821785525050505050509050019150509081526020016040518091039020600701600082825401925050819055505050565b606060006004846040518082805190602001908083835b6020831061218a5780518252602082019150602081019050602083039250612167565b6001836020036101000a0380198251168184511680821785525050505050509050019150509081526020016040518091039020600d0160000183815481106121ce57fe5b906000526020600020016004856040518082805190602001908083835b6020831061220e57805182526020820191506020810190506020830392506121eb565b6001836020036101000a0380198251168184511680821785525050505050509050019150509081526020016040518091039020600d01600101848154811061225257fe5b9060005260206000200160009054906101000a900473ffffffffffffffffffffffffffffffffffffffff16818054600181600116156101000203166002900480601f0160208091040260200160405190810160405280929190818152602001828054600181600116156101000203166002900480156123125780601f106122e757610100808354040283529160200191612312565b820191906000526020600020905b8154815290600101906020018083116122f557829003601f168201915b50505050509150915091509250929050565b606080600080600260008673ffffffffffffffffffffffffffffffffffffffff1673ffffffffffffffffffffffffffffffffffffffff168152602001908152602001600020548154811061237457fe5b90600052602060002090600502016000016000600260008773ffffffffffffffffffffffffffffffffffffffff1673ffffffffffffffffffffffffffffffffffffffff16815260200190815260200160002054815481106123d157fe5b90600052602060002090600502016001016000600260008873ffffffffffffffffffffffffffffffffffffffff1673ffffffffffffffffffffffffffffffffffffffff168152602001908152602001600020548154811061242e57fe5b906000526020600020906005020160020180549050828054600181600116156101000203166002900480601f0160208091040260200160405190810160405280929190818152602001828054600181600116156101000203166002900480156124d85780601f106124ad576101008083540402835291602001916124d8565b820191906000526020600020905b8154815290600101906020018083116124bb57829003601f168201915b50505050509250818054600181600116156101000203166002900480601f0160208091040260200160405190810160405280929190818152602001828054600181600116156101000203166002900480156125745780601f1061254957610100808354040283529160200191612574565b820191906000526020600020905b81548152906001019060200180831161255757829003601f168201915b505050505091509250925092509193909250565b6004826040518082805190602001908083835b602083106125be578051825260208201915060208101905060208303925061259b565b6001836020036101000a0380198251168184511680821785525050505050509050019150509081526020016040518091039020600d01600001819080600181540180825580915050906001820390600052602060002001600090919290919091509080519060200190612632929190615c0b565b50506004826040518082805190602001908083835b6020831061266a5780518252602082019150602081019050602083039250612647565b6001836020036101000a0380198251168184511680821785525050505050509050019150509081526020016040518091039020600d016001013390806001815401808255809150509060018203906000526020600020016000909192909190916101000a81548173ffffffffffffffffffffffffffffffffffffffff021916908373ffffffffffffffffffffffffffffffffffffffff160217905550505050565b620f42406004826040518082805190602001908083835b602083106127455780518252602082019150602081019050602083039250612722565b6001836020036101000a03801982511681845116808217855250505050505090500191505090815260200160405180910390206005015410156127f0576040517f08c379a00000000000000000000000000000000000000000000000000000000081526004018080602001828103825260118152602001807f4572726f722073746f7020766f74696e6700000000000000000000000000000081525060200191505060405180910390fd5b3373ffffffffffffffffffffffffffffffffffffffff166108fc620f42409081150290604051600060405180830381858888f19350505050158015612839573d6000803e3d6000fd5b5060008090506000809050600080905060008090505b6004856040518082805190602001908083835b602083106128855780518252602082019150602081019050602083039250612862565b6001836020036101000a0380198251168184511680821785525050505050509050019150509081526020016040518091039020600a0180549050811015612d91576002600360006004886040518082805190602001908083835b6020831061290257805182526020820191506020810190506020830392506128df565b6001836020036101000a0380198251168184511680821785525050505050509050019150509081526020016040518091039020600a01848154811061294357fe5b9060005260206000200160009054906101000a900473ffffffffffffffffffffffffffffffffffffffff1673ffffffffffffffffffffffffffffffffffffffff1673ffffffffffffffffffffffffffffffffffffffff168152602001908152602001600020866040518082805190602001908083835b602083106129dc57805182526020820191506020810190506020830392506129b9565b6001836020036101000a0380198251168184511680821785525050505050509050019150509081526020016040518091039020541415612b27576004856040518082805190602001908083835b60208310612a4c5780518252602082019150602081019050602083039250612a29565b6001836020036101000a0380198251168184511680821785525050505050509050019150509081526020016040518091039020600b018181548110612a8d57fe5b9060005260206000200154830192506004856040518082805190602001908083835b60208310612ad25780518252602082019150602081019050602083039250612aaf565b6001836020036101000a0380198251168184511680821785525050505050509050019150509081526020016040518091039020600b018181548110612b1357fe5b906000526020600020015484019350612d84565b60038060006004886040518082805190602001908083835b60208310612b625780518252602082019150602081019050602083039250612b3f565b6001836020036101000a0380198251168184511680821785525050505050509050019150509081526020016040518091039020600a018481548110612ba357fe5b9060005260206000200160009054906101000a900473ffffffffffffffffffffffffffffffffffffffff1673ffffffffffffffffffffffffffffffffffffffff1673ffffffffffffffffffffffffffffffffffffffff168152602001908152602001600020866040518082805190602001908083835b60208310612c3c5780518252602082019150602081019050602083039250612c19565b6001836020036101000a0380198251168184511680821785525050505050509050019150509081526020016040518091039020541415612d83576004856040518082805190602001908083835b60208310612cac5780518252602082019150602081019050602083039250612c89565b6001836020036101000a0380198251168184511680821785525050505050509050019150509081526020016040518091039020600b018181548110612ced57fe5b9060005260206000200154820191506004856040518082805190602001908083835b60208310612d325780518252602082019150602081019050602083039250612d0f565b6001836020036101000a0380198251168184511680821785525050505050509050019150509081526020016040518091039020600b018181548110612d7357fe5b9060005260206000200154840193505b5b808060010191505061284f565b8183118015612e175750600480866040518082805190602001908083835b60208310612dd25780518252602082019150602081019050602083039250612daf565b6001836020036101000a0380198251168184511680821785525050505050509050019150509081526020016040518091039020600a018054905081612e1357fe5b0484115b156137c6576004856040518082805190602001908083835b60208310612e525780518252602082019150602081019050602083039250612e2f565b6001836020036101000a0380198251168184511680821785525050505050509050019150509081526020016040518091039020600801546004866040518082805190602001908083835b60208310612ebf5780518252602082019150602081019050602083039250612e9c565b6001836020036101000a0380198251168184511680821785525050505050509050019150509081526020016040518091039020600901546004876040518082805190602001908083835b60208310612f2c5780518252602082019150602081019050602083039250612f09565b6001836020036101000a0380198251168184511680821785525050505050509050019150509081526020016040518091039020600401540281612f6b57fe5b046004866040518082805190602001908083835b60208310612fa25780518252602082019150602081019050602083039250612f7f565b6001836020036101000a0380198251168184511680821785525050505050509050019150509081526020016040518091039020600601541061321d5761321885621e84806004886040518082805190602001908083835b6020831061301c5780518252602082019150602081019050602083039250612ff9565b6001836020036101000a0380198251168184511680821785525050505050509050019150509081526020016040518091039020600501546004896040518082805190602001908083835b602083106130895780518252602082019150602081019050602083039250613066565b6001836020036101000a038019825116818451168082178552505050505050905001915050908152602001604051809103902060060154036004896040518082805190602001908083835b602083106130f757805182526020820191506020810190506020830392506130d4565b6001836020036101000a03801982511681845116808217855250505050505090500191505090815260200160405180910390206008015460048a6040518082805190602001908083835b602083106131645780518252602082019150602081019050602083039250613141565b6001836020036101000a03801982511681845116808217855250505050505090500191505090815260200160405180910390206009015460048b6040518082805190602001908083835b602083106131d157805182526020820191506020810190506020830392506131ae565b6001836020036101000a038019825116818451168082178552505050505050905001915050908152602001604051809103902060040154028161321057fe5b040303614f68565b613299565b61329885621e84806004886040518082805190602001908083835b6020831061325b5780518252602082019150602081019050602083039250613238565b6001836020036101000a03801982511681845116808217855250505050505090500191505090815260200160405180910390206005015403614f68565b5b6004856040518082805190602001908083835b602083106132cf57805182526020820191506020810190506020830392506132ac565b6001836020036101000a0380198251168184511680821785525050505050509050019150509081526020016040518091039020600801546004866040518082805190602001908083835b6020831061333c5780518252602082019150602081019050602083039250613319565b6001836020036101000a038019825116818451168082178552505050505050905001915050908152602001604051809103902060090154101561363157600090505b6004856040518082805190602001908083835b602083106133b45780518252602082019150602081019050602083039250613391565b6001836020036101000a0380198251168184511680821785525050505050509050019150509081526020016040518091039020600a01805490508110156134af576134a26004866040518082805190602001908083835b6020831061342e578051825260208201915060208101905060208303925061340b565b6001836020036101000a0380198251168184511680821785525050505050509050019150509081526020016040518091039020600a01828154811061346f57fe5b9060005260206000200160009054906101000a900473ffffffffffffffffffffffffffffffffffffffff1686600061512f565b808060010191505061337e565b60016004866040518082805190602001908083835b602083106134e757805182526020820191506020810190506020830392506134c4565b6001836020036101000a038019825116818451168082178552505050505050905001915050908152602001604051809103902060090160008282540192505081905550620697806004866040518082805190602001908083835b602083106135645780518252602082019150602081019050602083039250613541565b6001836020036101000a03801982511681845116808217855250505050505090500191505090815260200160405180910390206007016000828254019250508190555060006004866040518082805190602001908083835b602083106135df57805182526020820191506020810190506020830392506135bc565b6001836020036101000a0380198251168184511680821785525050505050509050019150509081526020016040518091039020600c0160006101000a81548160ff0219169083151502179055506137c1565b60016004866040518082805190602001908083835b602083106136695780518252602082019150602081019050602083039250613646565b6001836020036101000a0380198251168184511680821785525050505050509050019150509081526020016040518091039020600c0160016101000a81548160ff02191690831515021790555060016004866040518082805190602001908083835b602083106136ee57805182526020820191506020810190506020830392506136cb565b6001836020036101000a0380198251168184511680821785525050505050509050019150509081526020016040518091039020600c0160036101000a81548160ff02191690831515021790555060016004866040518082805190602001908083835b602083106137735780518252602082019150602081019050602083039250613750565b6001836020036101000a0380198251168184511680821785525050505050509050019150509081526020016040518091039020600c0160026101000a81548160ff0219169083151502179055505b61395f565b60016004866040518082805190602001908083835b602083106137fe57805182526020820191506020810190506020830392506137db565b6001836020036101000a0380198251168184511680821785525050505050509050019150509081526020016040518091039020600c0160016101000a81548160ff02191690831515021790555060006004866040518082805190602001908083835b602083106138835780518252602082019150602081019050602083039250613860565b6001836020036101000a0380198251168184511680821785525050505050509050019150509081526020016040518091039020600c0160036101000a81548160ff0219169083151502179055506138d9856151df565b60016004866040518082805190602001908083835b6020831061391157805182526020820191506020810190506020830392506138ee565b6001836020036101000a0380198251168184511680821785525050505050509050019150509081526020016040518091039020600c0160026101000a81548160ff0219169083151502179055505b5050505050565b60006004826040518082805190602001908083835b6020831061399e578051825260208201915060208101905060208303925061397b565b6001836020036101000a0380198251168184511680821785525050505050509050019150509081526020016040518091039020600501549050919050565b6004816040518082805190602001908083835b60208310613a1257805182526020820191506020810190506020830392506139ef565b6001836020036101000a0380198251168184511680821785525050505050509050019150509081526020016040518091039020600c0160019054906101000a900460ff1615613ac9576040517f08c379a00000000000000000000000000000000000000000000000000000000081526004018080602001828103825260208152602001807f546869732070726f6a6563742073746f702072656365697665206d6f6e65792181525060200191505060405180910390fd5b6000600160003373ffffffffffffffffffffffffffffffffffffffff1673ffffffffffffffffffffffffffffffffffffffff168152602001908152602001600020541415613b3a57613b396040518060200160405280600081525060405180602001604052806000815250611a2e565b5b346004826040518082805190602001908083835b60208310613b715780518252602082019150602081019050602083039250613b4e565b6001836020036101000a038019825116818451168082178552505050505050905001915050908152602001604051809103902060050160008282540192505081905550346004826040518082805190602001908083835b60208310613beb5780518252602082019150602081019050602083039250613bc8565b6001836020036101000a0380198251168184511680821785525050505050509050019150509081526020016040518091039020600601600082825401925050819055506000806000809050600092505b6004846040518082805190602001908083835b60208310613c715780518252602082019150602081019050602083039250613c4e565b6001836020036101000a0380198251168184511680821785525050505050509050019150509081526020016040518091039020600a0180549050831015613d9c576004846040518082805190602001908083835b60208310613ce85780518252602082019150602081019050602083039250613cc5565b6001836020036101000a0380198251168184511680821785525050505050509050019150509081526020016040518091039020600a018381548110613d2957fe5b9060005260206000200160009054906101000a900473ffffffffffffffffffffffffffffffffffffffff1673ffffffffffffffffffffffffffffffffffffffff163373ffffffffffffffffffffffffffffffffffffffff161415613d8f57600190508291505b8280600101935050613c3b565b80613f7d576004846040518082805190602001908083835b60208310613dd75780518252602082019150602081019050602083039250613db4565b6001836020036101000a0380198251168184511680821785525050505050509050019150509081526020016040518091039020600a013390806001815401808255809150509060018203906000526020600020016000909192909190916101000a81548173ffffffffffffffffffffffffffffffffffffffff021916908373ffffffffffffffffffffffffffffffffffffffff160217905550506004846040518082805190602001908083835b60208310613ea75780518252602082019150602081019050602083039250613e84565b6001836020036101000a0380198251168184511680821785525050505050509050019150509081526020016040518091039020600b0134908060018154018082558091505090600182039060005260206000200160009091929091909150555060016004856040518082805190602001908083835b60208310613f3f5780518252602082019150602081019050602083039250613f1c565b6001836020036101000a0380198251168184511680821785525050505050509050019150509081526020016040518091039020600a01805490500391505b6004846040518082805190602001908083835b60208310613fb35780518252602082019150602081019050602083039250613f90565b6001836020036101000a0380198251168184511680821785525050505050509050019150509081526020016040518091039020600401546004856040518082805190602001908083835b602083106140205780518252602082019150602081019050602083039250613ffd565b6001836020036101000a038019825116818451168082178552505050505050905001915050908152602001604051809103902060060154106145a3576004846040518082805190602001908083835b60208310614092578051825260208201915060208101905060208303925061406f565b6001836020036101000a0380198251168184511680821785525050505050509050019150509081526020016040518091039020600401546004856040518082805190602001908083835b602083106140ff57805182526020820191506020810190506020830392506140dc565b6001836020036101000a038019825116818451168082178552505050505050905001915050908152602001604051809103902060060154036004856040518082805190602001908083835b6020831061416d578051825260208201915060208101905060208303925061414a565b6001836020036101000a0380198251168184511680821785525050505050509050019150509081526020016040518091039020600501600082825403925050819055506004846040518082805190602001908083835b602083106141e657805182526020820191506020810190506020830392506141c3565b6001836020036101000a0380198251168184511680821785525050505050509050019150509081526020016040518091039020600401546004856040518082805190602001908083835b602083106142535780518252602082019150602081019050602083039250614230565b6001836020036101000a038019825116818451168082178552505050505050905001915050908152602001604051809103902060060154036004856040518082805190602001908083835b602083106142c1578051825260208201915060208101905060208303925061429e565b6001836020036101000a0380198251168184511680821785525050505050509050019150509081526020016040518091039020600b01838154811061430257fe5b906000526020600020016000828254039250508190555060003390508073ffffffffffffffffffffffffffffffffffffffff166108fc6004876040518082805190602001908083835b6020831061436e578051825260208201915060208101905060208303925061434b565b6001836020036101000a0380198251168184511680821785525050505050509050019150509081526020016040518091039020600401546004886040518082805190602001908083835b602083106143db57805182526020820191506020810190506020830392506143b8565b6001836020036101000a038019825116818451168082178552505050505050905001915050908152602001604051809103902060060154039081150290604051600060405180830381858888f1935050505015801561443e573d6000803e3d6000fd5b506004856040518082805190602001908083835b602083106144755780518252602082019150602081019050602083039250614452565b6001836020036101000a0380198251168184511680821785525050505050509050019150509081526020016040518091039020600401546004866040518082805190602001908083835b602083106144e257805182526020820191506020810190506020830392506144bf565b6001836020036101000a03801982511681845116808217855250505050505090500191505090815260200160405180910390206006018190555060016004866040518082805190602001908083835b602083106145545780518252602082019150602081019050602083039250614531565b6001836020036101000a0380198251168184511680821785525050505050509050019150509081526020016040518091039020600c0160016101000a81548160ff021916908315150217905550505b61462f33856004876040518082805190602001908083835b602083106145de57805182526020820191506020810190506020830392506145bb565b6001836020036101000a0380198251168184511680821785525050505050509050019150509081526020016040518091039020600b01858154811061461f57fe5b906000526020600020015461558b565b50505050565b606080606060008060008060046005898154811061464f57fe5b9060005260206000200160405180828054600181600116156101000203166002900480156146b45780601f106146925761010080835404028352918201916146b4565b820191906000526020600020905b8154815290600101906020018083116146a0575b50509150509081526020016040518091039020600001600460058a815481106146d957fe5b90600052602060002001604051808280546001816001161561010002031660029004801561473e5780601f1061471c57610100808354040283529182019161473e565b820191906000526020600020905b81548152906001019060200180831161472a575b50509150509081526020016040518091039020600101600460058b8154811061476357fe5b9060005260206000200160405180828054600181600116156101000203166002900480156147c85780601f106147a65761010080835404028352918201916147c8565b820191906000526020600020905b8154815290600101906020018083116147b4575b50509150509081526020016040518091039020600201600460058c815481106147ed57fe5b9060005260206000200160405180828054600181600116156101000203166002900480156148525780601f10614830576101008083540402835291820191614852565b820191906000526020600020905b81548152906001019060200180831161483e575b5050915050908152602001604051809103902060060154600460058d8154811061487857fe5b9060005260206000200160405180828054600181600116156101000203166002900480156148dd5780601f106148bb5761010080835404028352918201916148dd565b820191906000526020600020905b8154815290600101906020018083116148c9575b5050915050908152602001604051809103902060040154600460058e8154811061490357fe5b9060005260206000200160405180828054600181600116156101000203166002900480156149685780601f10614946576101008083540402835291820191614968565b820191906000526020600020905b815481529060010190602001808311614954575b5050915050908152602001604051809103902060070154600460058f8154811061498e57fe5b9060005260206000200160405180828054600181600116156101000203166002900480156149f35780601f106149d15761010080835404028352918201916149f3565b820191906000526020600020905b8154815290600101906020018083116149df575b5050915050908152602001604051809103902060030160009054906101000a900473ffffffffffffffffffffffffffffffffffffffff16868054600181600116156101000203166002900480601f016020809104026020016040519081016040528092919081815260200182805460018160011615610100020316600290048015614abf5780601f10614a9457610100808354040283529160200191614abf565b820191906000526020600020905b815481529060010190602001808311614aa257829003601f168201915b50505050509650858054600181600116156101000203166002900480601f016020809104026020016040519081016040528092919081815260200182805460018160011615610100020316600290048015614b5b5780601f10614b3057610100808354040283529160200191614b5b565b820191906000526020600020905b815481529060010190602001808311614b3e57829003601f168201915b50505050509550848054600181600116156101000203166002900480601f016020809104026020016040519081016040528092919081815260200182805460018160011615610100020316600290048015614bf75780601f10614bcc57610100808354040283529160200191614bf7565b820191906000526020600020905b815481529060010190602001808311614bda57829003601f168201915b505050505094508090509650965096509650965096509650919395979092949650565b8015614c8f576002600360003373ffffffffffffffffffffffffffffffffffffffff1673ffffffffffffffffffffffffffffffffffffffff1681526020019081526020016000208484604051808383808284378083019250505092505050908152602001604051809103902081905550614cf9565b60038060003373ffffffffffffffffffffffffffffffffffffffff1673ffffffffffffffffffffffffffffffffffffffff16815260200190815260200160002084846040518083838082843780830192505050925050509081526020016040518091039020819055505b505050565b6000600260008473ffffffffffffffffffffffffffffffffffffffff1673ffffffffffffffffffffffffffffffffffffffff1681526020019081526020016000205481548110614d4a57fe5b9060005260206000209060050201600201819080600181540180825580915050906001820390600052602060002001600090919290919091509080519060200190614d96929190615c0b565b50505050565b6000600360008473ffffffffffffffffffffffffffffffffffffffff1673ffffffffffffffffffffffffffffffffffffffff168152602001908152602001600020826040518082805190602001908083835b60208310614e115780518252602082019150602081019050602083039250614dee565b6001836020036101000a03801982511681845116808217855250505050505090500191505090815260200160405180910390205414614eb8576040517f08c379a00000000000000000000000000000000000000000000000000000000081526004018080602001828103825260168152602001807f4572726f723a20616c726561647920737461727465640000000000000000000081525060200191505060405180910390fd5b6001600360008473ffffffffffffffffffffffffffffffffffffffff1673ffffffffffffffffffffffffffffffffffffffff168152602001908152602001600020826040518082805190602001908083835b60208310614f2d5780518252602082019150602081019050602083039250614f0a565b6001836020036101000a0380198251168184511680821785525050505050509050019150509081526020016040518091039020819055505050565b80471015614fde576040517f08c379a00000000000000000000000000000000000000000000000000000000081526004018080602001828103825260068152602001807f6572726f7221000000000000000000000000000000000000000000000000000081525060200191505060405180910390fd5b6004826040518082805190602001908083835b602083106150145780518252602082019150602081019050602083039250614ff1565b6001836020036101000a038019825116818451168082178552505050505050905001915050908152602001604051809103902060030160009054906101000a900473ffffffffffffffffffffffffffffffffffffffff1673ffffffffffffffffffffffffffffffffffffffff166108fc829081150290604051600060405180830381858888f193505050501580156150b0573d6000803e3d6000fd5b50806004836040518082805190602001908083835b602083106150e857805182526020820191506020810190506020830392506150c5565b6001836020036101000a0380198251168184511680821785525050505050509050019150509081526020016040518091039020600501600082825403925050819055505050565b80600360008573ffffffffffffffffffffffffffffffffffffffff1673ffffffffffffffffffffffffffffffffffffffff168152602001908152602001600020836040518082805190602001908083835b602083106151a35780518252602082019150602081019050602083039250615180565b6001836020036101000a038019825116818451168082178552505050505050905001915050908152602001604051809103902081905550505050565b60008090505b6004826040518082805190602001908083835b6020831061521b57805182526020820191506020810190506020830392506151f8565b6001836020036101000a0380198251168184511680821785525050505050509050019150509081526020016040518091039020600a0180549050811015615587576004826040518082805190602001908083835b60208310615292578051825260208201915060208101905060208303925061526f565b6001836020036101000a0380198251168184511680821785525050505050509050019150509081526020016040518091039020600a0181815481106152d357fe5b9060005260206000200160009054906101000a900473ffffffffffffffffffffffffffffffffffffffff1673ffffffffffffffffffffffffffffffffffffffff166108fc61271060046005858154811061532957fe5b90600052602060002001604051808280546001816001161561010002031660029004801561538e5780601f1061536c57610100808354040283529182019161538e565b820191906000526020600020905b81548152906001019060200180831161537a575b50509150509081526020016040518091039020600601546127106004600587815481106153b757fe5b90600052602060002001604051808280546001816001161561010002031660029004801561541c5780601f106153fa57610100808354040283529182019161541c565b820191906000526020600020905b815481529060010190602001808311615408575b5050915050908152602001604051809103902060050154028161543b57fe5b046004866040518082805190602001908083835b60208310615472578051825260208201915060208101905060208303925061544f565b6001836020036101000a0380198251168184511680821785525050505050509050019150509081526020016040518091039020600b0185815481106154b357fe5b906000526020600020015402816154c657fe5b049081150290604051600060405180830381858888f193505050501580156154f2573d6000803e3d6000fd5b5060006004836040518082805190602001908083835b6020831061552b5780518252602082019150602081019050602083039250615508565b6001836020036101000a0380198251168184511680821785525050505050509050019150509081526020016040518091039020600b01828154811061556c57fe5b906000526020600020018190555080806001019150506151e5565b5050565b60008060009050600091505b6000600260008773ffffffffffffffffffffffffffffffffffffffff1673ffffffffffffffffffffffffffffffffffffffff16815260200190815260200160002054815481106155e357fe5b9060005260206000209060050201600301805490508210156157f4576000600260008773ffffffffffffffffffffffffffffffffffffffff1673ffffffffffffffffffffffffffffffffffffffff168152602001908152602001600020548154811061564b57fe5b9060005260206000209060050201600301828154811061566757fe5b9060005260206000200160405160200180828054600181600116156101000203166002900480156156cf5780601f106156ad5761010080835404028352918201916156cf565b820191906000526020600020905b8154815290600101906020018083116156bb575b505091505060405160208183030381529060405280519060200120846040516020018082805190602001908083835b6020831061572157805182526020820191506020810190506020830392506156fe565b6001836020036101000a0380198251168184511680821785525050505050509050019150506040516020818303038152906040528051906020012014156157e757826000600260008873ffffffffffffffffffffffffffffffffffffffff1673ffffffffffffffffffffffffffffffffffffffff16815260200190815260200160002054815481106157af57fe5b906000526020600020906005020160040183815481106157cb57fe5b9060005260206000200160008282540192505081905550600190505b8180600101925050615597565b8061591b576000600260008773ffffffffffffffffffffffffffffffffffffffff1673ffffffffffffffffffffffffffffffffffffffff168152602001908152602001600020548154811061584557fe5b9060005260206000209060050201600301849080600181540180825580915050906001820390600052602060002001600090919290919091509080519060200190615891929190615c0b565b50506000600260008773ffffffffffffffffffffffffffffffffffffffff1673ffffffffffffffffffffffffffffffffffffffff16815260200190815260200160002054815481106158df57fe5b90600052602060002090600502016004018390806001815401808255809150509060018203906000526020600020016000909192909190915055505b5050505050565b604051806102200160405280606081526020016060815260200160608152602001600073ffffffffffffffffffffffffffffffffffffffff16815260200160008152602001600081526020016000815260200160008152602001600081526020016000815260200160608152602001606081526020016000151581526020016000151581526020016000151581526020016000151581526020016159c4615cba565b81525090565b828054600181600116156101000203166002900490600052602060002090601f016020900481019282601f10615a0b57805160ff1916838001178555615a39565b82800160010185558215615a39579182015b82811115615a38578251825591602001919060010190615a1d565b5b509050615a469190615cd4565b5090565b828054828255906000526020600020908101928215615ac3579160200282015b82811115615ac25782518260006101000a81548173ffffffffffffffffffffffffffffffffffffffff021916908373ffffffffffffffffffffffffffffffffffffffff16021790555091602001919060010190615a6a565b5b509050615ad09190615cf9565b5090565b828054828255906000526020600020908101928215615b10579160200282015b82811115615b0f578251825591602001919060010190615af4565b5b509050615b1d9190615cd4565b5090565b828054828255906000526020600020908101928215615b70579160200282015b82811115615b6f578251829080519060200190615b5f9291906159ca565b5091602001919060010190615b41565b5b509050615b7d9190615d3c565b5090565b828054828255906000526020600020908101928215615bfa579160200282015b82811115615bf95782518260006101000a81548173ffffffffffffffffffffffffffffffffffffffff021916908373ffffffffffffffffffffffffffffffffffffffff16021790555091602001919060010190615ba1565b5b509050615c079190615d68565b5090565b828054600181600116156101000203166002900490600052602060002090601f016020900481019282601f10615c4c57805160ff1916838001178555615c7a565b82800160010185558215615c7a579182015b82811115615c79578251825591602001919060010190615c5e565b5b509050615c879190615cd4565b5090565b6040518060a0016040528060608152602001606081526020016060815260200160608152602001606081525090565b604051806040016040528060608152602001606081525090565b615cf691905b80821115615cf2576000816000905550600101615cda565b5090565b90565b615d3991905b80821115615d3557600081816101000a81549073ffffffffffffffffffffffffffffffffffffffff021916905550600101615cff565b5090565b90565b615d6591905b80821115615d615760008181615d589190615dab565b50600101615d42565b5090565b90565b615da891905b80821115615da457600081816101000a81549073ffffffffffffffffffffffffffffffffffffffff021916905550600101615d6e565b5090565b90565b50805460018160011615610100020316600290046000825580601f10615dd15750615df0565b601f016020900490600052602060002090810190615def9190615cd4565b5b5056fe4552524f523a2070726f6a65637420776974682073616d65207469746c6520657869737473a265627a7a723158200d80dc6c914bb1583023fe3985fc16ebca55381dde486cf900ee535f23e7e6d664736f6c63430005100032",
  "source": "pragma solidity >=0.4.21 <0.7.0;\r\nimport \"./User.sol\";\r\n\r\n/*library Console {\r\n  event _TruffleConsoleLog(bool boolean);\r\n  event _TruffleConsoleLog(int num);\r\n  event _TruffleConsoleLog(uint num);\r\n  event _TruffleConsoleLog(string str);\r\n  event _TruffleConsoleLog(bytes32 b32);\r\n  event _TruffleConsoleLog(address addr);\r\n\r\n  event _TruffleConsoleLogNamed(bytes32 label, bool boolean);\r\n  event _TruffleConsoleLogNamed(bytes32 label, int num);\r\n  event _TruffleConsoleLogNamed(bytes32 label, uint num);\r\n  event _TruffleConsoleLogNamed(bytes32 label, string str);\r\n  event _TruffleConsoleLogNamed(bytes32 label, bytes32 b32);\r\n  event _TruffleConsoleLogNamed(bytes32 label, address addr);\r\n\r\n  function log(bool x) public {\r\n    emit _TruffleConsoleLog(x);\r\n  }\r\n\r\n  function log(int x) public {\r\n    emit _TruffleConsoleLog(x);\r\n  }\r\n\r\n  function log(uint x) public {\r\n    emit _TruffleConsoleLog(x);\r\n  }\r\n\r\n  function log(string memory x) public {\r\n    emit _TruffleConsoleLog(x);\r\n  }\r\n\r\n  function log(bytes32 x) public {\r\n    emit _TruffleConsoleLog(x);\r\n  }\r\n\r\n  function log(address x) public {\r\n    emit _TruffleConsoleLog(x);\r\n  }\r\n\r\n  function log(bytes32 x, bool y) public {\r\n    emit _TruffleConsoleLogNamed(x, y);\r\n  }\r\n\r\n  function log(bytes32 x, int y) public {\r\n    emit _TruffleConsoleLogNamed(x, y);\r\n  }\r\n\r\n  function log(bytes32 x, uint y) public {\r\n    emit _TruffleConsoleLogNamed(x, y);\r\n  }\r\n\r\n  function log(bytes32 x, string memory y) public {\r\n    emit _TruffleConsoleLogNamed(x, y);\r\n  }\r\n\r\n  function log(bytes32 x, bytes32 y) public {\r\n    emit _TruffleConsoleLogNamed(x, y);\r\n  }\r\n\r\n  function log(bytes32 x, address y) public {\r\n    emit _TruffleConsoleLogNamed(x, y);\r\n  }\r\n}*/\r\n\r\ncontract Fund is User{\r\n    struct msgboard{\r\n        string[] msg;\r\n        address[] sender;\r\n    }\r\n    struct project{\r\n        string  title;\r\n        string  intro;\r\n        string  topic;\r\n        address payable owner;\r\n        uint  target_money;\r\n        uint  current_money;\r\n        uint  accumulate_money;\r\n        uint  deadline;\r\n        uint  stagenum;\r\n        uint  stage;\r\n        address payable[] sponsors;\r\n        uint[] money_of_sponsors;\r\n        bool  isvoting;\r\n        bool stop;\r\n        bool end;\r\n        bool success;\r\n        msgboard board;\r\n    }\r\n    mapping(string=>project) internal title_to_project;\r\n    string[] internal index_to_project;\r\n    function add_project(string memory _title, string memory _topic, string memory _intro,\r\n     uint _target_money, uint _deadline, uint _stagenum) public {\r\n            require(title_to_project[_title].target_money==0,\"ERROR: project with same title exists\");\r\n            require(_target_money>0,\"\");\r\n            if(user_exist[msg.sender] == 0){\r\n              add_user(\"\", \"\");\r\n            }\r\n            project memory _p;\r\n            _p.title = _title;\r\n            _p.topic = _topic;\r\n            _p.intro = _intro;\r\n            _p.target_money = _target_money;\r\n            _p.deadline = _deadline;\r\n            _p.stagenum = _stagenum;\r\n            _p.stage = 1;\r\n            _p.stop = false;\r\n            _p.isvoting = false;\r\n            _p.end = false;\r\n            _p.owner = msg.sender;\r\n            user_create_project(msg.sender, _title);\r\n            title_to_project[_title] = _p;\r\n            index_to_project.push(_title);\r\n        //Console.log(title_to_project[_title].view_title());\r\n    }\r\n    function recieve_value_to_project(string memory _title) public payable {\r\n        require(!title_to_project[_title].stop,\"This project stop receive money!\");\r\n        if(user_exist[msg.sender] == 0){\r\n          add_user(\"\", \"\");\r\n        }\r\n        title_to_project[_title].current_money += msg.value;\r\n        title_to_project[_title].accumulate_money += msg.value;\r\n        uint i;\r\n        uint _i;\r\n        bool found = false;\r\n        for(i = 0 ; i<title_to_project[_title].sponsors.length ; i++){\r\n          if(msg.sender==title_to_project[_title].sponsors[i]){\r\n            found = true;\r\n            _i = i;\r\n          }\r\n        }\r\n        if(!found){\r\n          title_to_project[_title].sponsors.push(msg.sender);\r\n          title_to_project[_title].money_of_sponsors.push(msg.value);\r\n          _i = title_to_project[_title].sponsors.length-1;\r\n        }\r\n        if(title_to_project[_title].accumulate_money >= title_to_project[_title].target_money){//recieve to much money, send back, start voting\r\n            title_to_project[_title].current_money -= title_to_project[_title].accumulate_money-title_to_project[_title].target_money;\r\n            title_to_project[_title].money_of_sponsors[_i] -= title_to_project[_title].accumulate_money-title_to_project[_title].target_money;\r\n            address payable _sender = msg.sender;\r\n            _sender.transfer(title_to_project[_title].accumulate_money-title_to_project[_title].target_money);\r\n            title_to_project[_title].accumulate_money = title_to_project[_title].target_money;\r\n            title_to_project[_title].stop = true;\r\n        }\r\n        user_send_money_to_project(msg.sender,_title,\r\n          title_to_project[_title].money_of_sponsors[_i]);\r\n    }\r\n    function transfer_value_to_project_owner(string memory _title, uint _money) internal{\r\n        require(address(this).balance >= _money,\"error!\");\r\n        title_to_project[_title].owner.transfer(_money);\r\n        title_to_project[_title].current_money -= _money;\r\n    }\r\n    function view_project_list_length() public view returns (uint){\r\n        return index_to_project.length;\r\n    }\r\n    function view_project_list(uint i) public view returns (string memory,string memory,string memory,uint,uint,uint,address){\r\n        return (\r\n                title_to_project[index_to_project[i]].title,\r\n                title_to_project[index_to_project[i]].intro,\r\n                title_to_project[index_to_project[i]].topic,\r\n                //title_to_project[index_to_project[i]].current_money,\r\n                title_to_project[index_to_project[i]].accumulate_money,\r\n                title_to_project[index_to_project[i]].target_money,\r\n                title_to_project[index_to_project[i]].deadline,\r\n                title_to_project[index_to_project[i]].owner\r\n              );\r\n    }\r\n    function comment_on_board(string memory _title, string memory _msg) public {\r\n        title_to_project[_title].board.msg.push(_msg);\r\n        title_to_project[_title].board.sender.push(msg.sender);\r\n    }\r\n    function view_comment_length(string memory _title) public view returns(uint){\r\n        return title_to_project[_title].board.msg.length;\r\n    }\r\n    function view_comment(string memory _title, uint i) public view returns(string memory, address){\r\n        return(title_to_project[_title].board.msg[i], title_to_project[_title].board.sender[i]);\r\n    }\r\n    function view_project_current_money(string memory _title) public view returns(uint){\r\n        return title_to_project[_title].current_money;\r\n    }\r\n    function view_project_stop(uint i) public view returns(bool){\r\n        return title_to_project[index_to_project[i]].stop;\r\n    }\r\n    function pay_back_money(string memory _title) private {\r\n      uint i;\r\n      for(i = 0 ; i < title_to_project[_title].sponsors.length ; i++){\r\n        title_to_project[_title].sponsors[i].transfer(title_to_project[_title].money_of_sponsors[i]*\r\n        (title_to_project[index_to_project[i]].current_money*10000/title_to_project[index_to_project[i]].accumulate_money)/10000);\r\n        title_to_project[_title].money_of_sponsors[i] = 0;\r\n      }\r\n    }\r\n    function start_voting(string memory _title) public{\r\n      // require(title_to_project[_title].deadline < 1577808000000+block.number*60*60*24*1000,\"error start voting\");\r\n      require(title_to_project[_title].current_money >= 1000000, \"Error start voting\");\r\n      msg.sender.transfer(1000000);//send bonus to voting starter\r\n      uint i;\r\n      for(i = 0 ; i < title_to_project[_title].sponsors.length ; i++){\r\n          user_start_voting(title_to_project[_title].sponsors[i],_title);\r\n      }\r\n      //title_to_project[_title].stop = true;\r\n      title_to_project[_title].isvoting = true;\r\n      title_to_project[_title].deadline += 5*60*60*24;//voting deadline;\r\n    }\r\n    function stop_voting(string memory _title) public{\r\n      // require(title_to_project[_title].deadline < 1577808000000+block.number*60*60*24*1000,\"Error stop voting\");\r\n      // require(title_to_project[_title].voting_end == false,\"Error voting ended\");\r\n      require(title_to_project[_title].current_money >= 1000000, \"Error stop voting\");\r\n      msg.sender.transfer(1000000);//send bonus to voting stoper\r\n      //check voting result\r\n      uint total = 0;\r\n      uint agree = 0;\r\n      uint disagree = 0;\r\n      uint i;\r\n      for(i = 0 ; i < title_to_project[_title].sponsors.length ; i++){\r\n          if(project_voting[title_to_project[_title].sponsors[i]][_title]==2){//agree\r\n              agree += title_to_project[_title].money_of_sponsors[i];\r\n              total += title_to_project[_title].money_of_sponsors[i];\r\n          }\r\n          else if(project_voting[title_to_project[_title].sponsors[i]][_title]==3){//disagree\r\n              disagree += title_to_project[_title].money_of_sponsors[i];\r\n              total += title_to_project[_title].money_of_sponsors[i];\r\n          }\r\n      }\r\n      if(agree>disagree && total>(title_to_project[_title].sponsors.length/4)){//threshold\r\n        if(title_to_project[_title].accumulate_money>=title_to_project[_title].target_money*title_to_project[_title].stage/title_to_project[_title].stagenum){\r\n          transfer_value_to_project_owner(_title,\r\n          title_to_project[_title].target_money*title_to_project[_title].stage/title_to_project[_title].stagenum -\r\n          (title_to_project[_title].accumulate_money-title_to_project[_title].current_money)-2*1000000);\r\n        }\r\n        else{\r\n          transfer_value_to_project_owner(_title,title_to_project[_title].current_money-2*1000000);\r\n        }\r\n        //transfer_value_to_project_owner(_title,title_to_project[_title].current_money-2*1000000);\r\n        if(title_to_project[_title].stage < title_to_project[_title].stagenum){//not end\r\n          //reset users' voting state for next voting\r\n          for(i = 0 ; i < title_to_project[_title].sponsors.length ; i++){\r\n            user_stop_voting(title_to_project[_title].sponsors[i],_title, 0);//voting success\r\n          }\r\n          title_to_project[_title].stage += 1;\r\n          title_to_project[_title].deadline += 5*60*60*24;\r\n          /*if(title_to_project[_title].accumulate_money < title_to_project[_title].target_money){\r\n              title_to_project[_title].stop = false;\r\n          }*/\r\n          title_to_project[_title].isvoting = false;\r\n        }\r\n        else{//end\r\n          title_to_project[_title].stop = true;\r\n          title_to_project[_title].success = true;\r\n          title_to_project[_title].end = true;\r\n        }\r\n      }\r\n      else{\r\n        title_to_project[_title].stop = true;\r\n        title_to_project[_title].success = false;\r\n        pay_back_money(_title);\r\n        title_to_project[_title].end = true;\r\n      }\r\n    }\r\n    function view_read_state(string memory _title) public view returns(uint, bool, bool, bool){\r\n        return(\r\n          project_voting[msg.sender][_title],\r\n          title_to_project[_title].end,\r\n          title_to_project[_title].isvoting,\r\n          title_to_project[_title].success\r\n        );\r\n    }\r\n}",
  "sourcePath": "/home/benjamin//dapp-react/contracts/Fund.sol",
  "compiler": {
    "name": "solc",
    "version": "0.5.16+commit.9c3226ce.Emscripten.clang"
  },
  "schemaVersion": "3.1.0",
  "updatedAt": "2020-06-24T03:50:38.117Z",
  "networkType": "ethereum",
  "devdoc": {
    "methods": {}
  },
  "userdoc": {
    "methods": {
      "add_user(string,string)": {
        "notice": "//////external function"
      }
    }
  }
}