{
  "contractName": "User",
  "abi": [
    {
      "constant": false,
      "inputs": [
        {
          "internalType": "string",
          "name": "_nickname",
          "type": "string"
        },
        {
          "internalType": "string",
          "name": "_intro",
          "type": "string"
        }
      ],
      "name": "add_user",
      "outputs": [],
      "payable": false,
      "stateMutability": "nonpayable",
      "type": "function"
    },
    {
      "constant": true,
      "inputs": [
        {
          "internalType": "address",
          "name": "_address",
          "type": "address"
        }
      ],
      "name": "view_user_exist_or_not",
      "outputs": [
        {
          "internalType": "uint256",
          "name": "",
          "type": "uint256"
        }
      ],
      "payable": false,
      "stateMutability": "view",
      "type": "function"
    },
    {
      "constant": true,
      "inputs": [
        {
          "internalType": "address",
          "name": "_address",
          "type": "address"
        }
      ],
      "name": "view_user_data",
      "outputs": [
        {
          "internalType": "string",
          "name": "",
          "type": "string"
        },
        {
          "internalType": "string",
          "name": "",
          "type": "string"
        },
        {
          "internalType": "uint256",
          "name": "",
          "type": "uint256"
        }
      ],
      "payable": false,
      "stateMutability": "view",
      "type": "function"
    },
    {
      "constant": true,
      "inputs": [
        {
          "internalType": "address",
          "name": "_address",
          "type": "address"
        },
        {
          "internalType": "uint256",
          "name": "i",
          "type": "uint256"
        }
      ],
      "name": "view_user_created_project",
      "outputs": [
        {
          "internalType": "string",
          "name": "",
          "type": "string"
        }
      ],
      "payable": false,
      "stateMutability": "view",
      "type": "function"
    },
    {
      "constant": false,
      "inputs": [
        {
          "internalType": "string",
          "name": "_title",
          "type": "string"
        },
        {
          "internalType": "bool",
          "name": "agree",
          "type": "bool"
        }
      ],
      "name": "user_voting",
      "outputs": [],
      "payable": false,
      "stateMutability": "nonpayable",
      "type": "function"
    }
  ],
  "bytecode": "0x608060405234801561001057600080fd5b50610e75806100206000396000f3fe608060405234801561001057600080fd5b50600436106100575760003560e01c806328457ec51461005c578063400462fa146100b4578063483d2945146102065780638557df63146102cd578063cfe31d83146103fd575b600080fd5b61009e6004803603602081101561007257600080fd5b81019080803573ffffffffffffffffffffffffffffffffffffffff169060200190929190505050610482565b6040518082815260200191505060405180910390f35b610204600480360360408110156100ca57600080fd5b81019080803590602001906401000000008111156100e757600080fd5b8201836020820111156100f957600080fd5b8035906020019184600183028401116401000000008311171561011b57600080fd5b91908080601f016020809104026020016040519081016040528093929190818152602001838380828437600081840152601f19601f8201169050808301925050505050505091929192908035906020019064010000000081111561017e57600080fd5b82018360208201111561019057600080fd5b803590602001918460018302840111640100000000831117156101b257600080fd5b91908080601f016020809104026020016040519081016040528093929190818152602001838380828437600081840152601f19601f8201169050808301925050505050505091929192905050506104cb565b005b6102526004803603604081101561021c57600080fd5b81019080803573ffffffffffffffffffffffffffffffffffffffff1690602001909291908035906020019092919050505061076e565b6040518080602001828103825283818151815260200191508051906020019080838360005b83811015610292578082015181840152602081019050610277565b50505050905090810190601f1680156102bf5780820380516001836020036101000a031916815260200191505b509250505060405180910390f35b61030f600480360360208110156102e357600080fd5b81019080803573ffffffffffffffffffffffffffffffffffffffff169060200190929190505050610883565b604051808060200180602001848152602001838103835286818151815260200191508051906020019080838360005b8381101561035957808201518184015260208101905061033e565b50505050905090810190601f1680156103865780820380516001836020036101000a031916815260200191505b50838103825285818151815260200191508051906020019080838360005b838110156103bf5780820151818401526020810190506103a4565b50505050905090810190601f1680156103ec5780820380516001836020036101000a031916815260200191505b509550505050505060405180910390f35b6104806004803603604081101561041357600080fd5b810190808035906020019064010000000081111561043057600080fd5b82018360208201111561044257600080fd5b8035906020019184600183028401116401000000008311171561046457600080fd5b9091929391929390803515159060200190929190505050610ae7565b005b6000600160008373ffffffffffffffffffffffffffffffffffffffff1673ffffffffffffffffffffffffffffffffffffffff168152602001908152602001600020549050919050565b6000600160003373ffffffffffffffffffffffffffffffffffffffff1673ffffffffffffffffffffffffffffffffffffffff1681526020019081526020016000205414156106855761051b610bcb565b828160000181905250818160200181905250600081908060018154018082558091505090600182039060005260206000209060050201600090919290919091506000820151816000019080519060200190610577929190610bfa565b506020820151816001019080519060200190610594929190610bfa565b5060408201518160020190805190602001906105b1929190610c7a565b5060608201518160030190805190602001906105ce929190610c7a565b5060808201518160040190805190602001906105eb929190610cda565b50505050600160008054905003600260003373ffffffffffffffffffffffffffffffffffffffff1673ffffffffffffffffffffffffffffffffffffffff1681526020019081526020016000208190555060018060003373ffffffffffffffffffffffffffffffffffffffff1673ffffffffffffffffffffffffffffffffffffffff168152602001908152602001600020819055505061076a565b816000600260003373ffffffffffffffffffffffffffffffffffffffff1673ffffffffffffffffffffffffffffffffffffffff16815260200190815260200160002054815481106106d257fe5b906000526020600020906005020160000190805190602001906106f6929190610d27565b50806000600260003373ffffffffffffffffffffffffffffffffffffffff1673ffffffffffffffffffffffffffffffffffffffff168152602001908152602001600020548154811061074457fe5b90600052602060002090600502016001019080519060200190610768929190610d27565b505b5050565b60606000600260008573ffffffffffffffffffffffffffffffffffffffff1673ffffffffffffffffffffffffffffffffffffffff16815260200190815260200160002054815481106107bc57fe5b906000526020600020906005020160020182815481106107d857fe5b906000526020600020018054600181600116156101000203166002900480601f0160208091040260200160405190810160405280929190818152602001828054600181600116156101000203166002900480156108765780601f1061084b57610100808354040283529160200191610876565b820191906000526020600020905b81548152906001019060200180831161085957829003601f168201915b5050505050905092915050565b606080600080600260008673ffffffffffffffffffffffffffffffffffffffff1673ffffffffffffffffffffffffffffffffffffffff16815260200190815260200160002054815481106108d357fe5b90600052602060002090600502016000016000600260008773ffffffffffffffffffffffffffffffffffffffff1673ffffffffffffffffffffffffffffffffffffffff168152602001908152602001600020548154811061093057fe5b90600052602060002090600502016001016000600260008873ffffffffffffffffffffffffffffffffffffffff1673ffffffffffffffffffffffffffffffffffffffff168152602001908152602001600020548154811061098d57fe5b906000526020600020906005020160020180549050828054600181600116156101000203166002900480601f016020809104026020016040519081016040528092919081815260200182805460018160011615610100020316600290048015610a375780601f10610a0c57610100808354040283529160200191610a37565b820191906000526020600020905b815481529060010190602001808311610a1a57829003601f168201915b50505050509250818054600181600116156101000203166002900480601f016020809104026020016040519081016040528092919081815260200182805460018160011615610100020316600290048015610ad35780601f10610aa857610100808354040283529160200191610ad3565b820191906000526020600020905b815481529060010190602001808311610ab657829003601f168201915b505050505091509250925092509193909250565b8015610b5c576002600360003373ffffffffffffffffffffffffffffffffffffffff1673ffffffffffffffffffffffffffffffffffffffff1681526020019081526020016000208484604051808383808284378083019250505092505050908152602001604051809103902081905550610bc6565b60038060003373ffffffffffffffffffffffffffffffffffffffff1673ffffffffffffffffffffffffffffffffffffffff16815260200190815260200160002084846040518083838082843780830192505050925050509081526020016040518091039020819055505b505050565b6040518060a0016040528060608152602001606081526020016060815260200160608152602001606081525090565b828054600181600116156101000203166002900490600052602060002090601f016020900481019282601f10610c3b57805160ff1916838001178555610c69565b82800160010185558215610c69579182015b82811115610c68578251825591602001919060010190610c4d565b5b509050610c769190610da7565b5090565b828054828255906000526020600020908101928215610cc9579160200282015b82811115610cc8578251829080519060200190610cb8929190610bfa565b5091602001919060010190610c9a565b5b509050610cd69190610dcc565b5090565b828054828255906000526020600020908101928215610d16579160200282015b82811115610d15578251825591602001919060010190610cfa565b5b509050610d239190610da7565b5090565b828054600181600116156101000203166002900490600052602060002090601f016020900481019282601f10610d6857805160ff1916838001178555610d96565b82800160010185558215610d96579182015b82811115610d95578251825591602001919060010190610d7a565b5b509050610da39190610da7565b5090565b610dc991905b80821115610dc5576000816000905550600101610dad565b5090565b90565b610df591905b80821115610df15760008181610de89190610df8565b50600101610dd2565b5090565b90565b50805460018160011615610100020316600290046000825580601f10610e1e5750610e3d565b601f016020900490600052602060002090810190610e3c9190610da7565b5b5056fea265627a7a72315820c34abf22cc2305a66828286360bef858548cc8016d14249e68b25d9234e1f01864736f6c63430005100032",
  "source": "pragma solidity >=0.4.21 <0.7.0;\r\ncontract User{\r\n\tstruct account{\r\n\t\t//address user_address;\r\n\t\tstring nickname;\r\n\t\tstring intro;\r\n\t\tstring[] created_project;\r\n\t\tstring[] sended_project;\r\n\t\tuint[] sended_money;\r\n\t}\r\n\r\n\taccount[] internal users;\r\n\tmapping(address=>uint) internal user_exist;\r\n\tmapping(address=>uint) internal address_to_account_index;\r\n\tmapping(address=>mapping(string=>uint)) internal project_voting; //0:haven't started/stop 1:start 2:agree 3:disagree\r\n\t//mapping(address=>mapping(string=>uint)) internal sended_project_index;\r\n\r\n\t/////////external function\r\n\r\n\tfunction add_user(string memory _nickname, string memory _intro) public {\r\n\t\tif(user_exist[msg.sender]==0){\r\n\t\t\taccount memory _a;\r\n\t\t\t//_a.user_address = msg.sender;\r\n\t\t\t_a.nickname = _nickname;\r\n\t\t\t_a.intro = _intro;\r\n\t\t\tusers.push(_a);\r\n\t\t\taddress_to_account_index[msg.sender] = users.length-1;\r\n\t\t\tuser_exist[msg.sender] = 1;\r\n\t\t}\r\n\t\telse{\r\n\t\t\tusers[address_to_account_index[msg.sender]].nickname = _nickname;\r\n\t\t\tusers[address_to_account_index[msg.sender]].intro = _intro;\r\n\t\t}\r\n\t}\r\n\tfunction view_user_exist_or_not(address _address) public view returns(uint){\r\n\t\treturn user_exist[_address];\r\n\t}\r\n\tfunction view_user_data(address _address) public view returns(string memory,string memory,uint){\r\n\t\treturn (\r\n\t\tusers[address_to_account_index[_address]].nickname,\r\n\t\tusers[address_to_account_index[_address]].intro,\r\n\t\tusers[address_to_account_index[_address]].created_project.length\r\n\t\t);\r\n\t}\r\n\tfunction view_user_created_project(address _address, uint i) public view returns (string memory){\r\n\t\treturn users[address_to_account_index[_address]].created_project[i];\r\n\t}\r\n\r\n\tfunction user_voting( string calldata _title, bool agree) external{\r\n\t\t//require(project_voting[msg.sender][_title]==1,\"Error: already voted!\");\r\n\t\t//require(1577808000+block.number*60*60*24*1<,\"\")\r\n\t\tif(agree){\r\n\t\t\tproject_voting[msg.sender][_title] = 2;//agree\r\n\t\t}\r\n\t\telse{\r\n\t\t\tproject_voting[msg.sender][_title] = 3;//disagree\r\n\t\t}\r\n\t}\r\n\t////////internal function\r\n\r\n\tfunction user_send_money_to_project(address _address, string memory _title, uint _value) internal{\r\n\t\t/*string memory temp = users[address_to_account_index[_address]].sended_project[sended_project_index[_address][_title]];\r\n\t\tif(!compareStrings(temp, _title)){\r\n\t\t\tusers[address_to_account_index[_address]].sended_project.push(_title);\r\n\t\t\tusers[address_to_account_index[_address]].sended_money.push(_value);\r\n\t\t\tsended_project_index[_address][_title] = users[address_to_account_index[_address]].sended_project.length-1;\r\n\t\t}\r\n\t\telse{\r\n\t\t\tusers[address_to_account_index[_address]].sended_money[sended_project_index[_address][_title]] += _value;\r\n\t\t}*/\r\n\t\tuint i;\r\n\t\tbool found = false;\r\n\t\tfor(i = 0 ; i<users[address_to_account_index[_address]].sended_project.length; i++){\r\n\t\t\tif(keccak256(abi.encodePacked((_title))) == keccak256(abi.encodePacked((users[address_to_account_index[_address]].sended_project[i])))){\r\n\t\t\t\tusers[address_to_account_index[_address]].sended_money[i] += _value;\r\n\t\t\t\tfound = true;\r\n\t\t\t}\r\n\t\t}\r\n\t\tif(!found){\r\n\t\t\tusers[address_to_account_index[_address]].sended_project.push(_title);\r\n\t\t\tusers[address_to_account_index[_address]].sended_money.push(_value);\r\n\t\t}\r\n\t}\r\n\r\n\tfunction user_create_project(address _address, string memory _title) internal{\r\n\t\tusers[address_to_account_index[_address]].created_project.push(_title);\r\n\t}\r\n\r\n\tfunction user_start_voting(address _address, string memory _title) internal{\r\n\t\trequire(project_voting[_address][_title]==0,\"Error: already started\");\r\n\t\tproject_voting[_address][_title] = 1;\r\n\t}\r\n\r\n\tfunction user_stop_voting(address _address, string memory _title, uint value) internal{\r\n\t\tproject_voting[_address][_title] = value;\r\n\t}\r\n\r\n}",
  "sourcePath": "/home/benjamin/下載/dapp-react/contracts/User.sol",
  "compiler": {
    "name": "solc",
    "version": "0.5.16+commit.9c3226ce.Emscripten.clang"
  },
  "schemaVersion": "3.1.0",
  "updatedAt": "2020-06-24T03:50:34.990Z",
  "devdoc": {
    "methods": {}
  },
  "userdoc": {
    "methods": {
      "add_user(string,string)": {
        "notice": "//////external function"
      }
    }
  }
}